{
  "contractName": "NFT",
  "abi": [
    {
      "inputs": [
        {
          "internalType": "address",
          "name": "marketplaceAddress",
          "type": "address"
        }
      ],
      "stateMutability": "nonpayable",
      "type": "constructor"
    },
    {
      "anonymous": false,
      "inputs": [
        {
          "indexed": true,
          "internalType": "address",
          "name": "owner",
          "type": "address"
        },
        {
          "indexed": true,
          "internalType": "address",
          "name": "approved",
          "type": "address"
        },
        {
          "indexed": true,
          "internalType": "uint256",
          "name": "tokenId",
          "type": "uint256"
        }
      ],
      "name": "Approval",
      "type": "event"
    },
    {
      "anonymous": false,
      "inputs": [
        {
          "indexed": true,
          "internalType": "address",
          "name": "owner",
          "type": "address"
        },
        {
          "indexed": true,
          "internalType": "address",
          "name": "operator",
          "type": "address"
        },
        {
          "indexed": false,
          "internalType": "bool",
          "name": "approved",
          "type": "bool"
        }
      ],
      "name": "ApprovalForAll",
      "type": "event"
    },
    {
      "anonymous": false,
      "inputs": [
        {
          "indexed": true,
          "internalType": "address",
          "name": "from",
          "type": "address"
        },
        {
          "indexed": true,
          "internalType": "address",
          "name": "to",
          "type": "address"
        },
        {
          "indexed": true,
          "internalType": "uint256",
          "name": "tokenId",
          "type": "uint256"
        }
      ],
      "name": "Transfer",
      "type": "event"
    },
    {
      "inputs": [],
      "name": "_tokenIds",
      "outputs": [
        {
          "internalType": "uint256",
          "name": "_value",
          "type": "uint256"
        }
      ],
      "stateMutability": "view",
      "type": "function",
      "constant": true
    },
    {
      "inputs": [
        {
          "internalType": "address",
          "name": "to",
          "type": "address"
        },
        {
          "internalType": "uint256",
          "name": "tokenId",
          "type": "uint256"
        }
      ],
      "name": "approve",
      "outputs": [],
      "stateMutability": "nonpayable",
      "type": "function"
    },
    {
      "inputs": [
        {
          "internalType": "address",
          "name": "owner",
          "type": "address"
        }
      ],
      "name": "balanceOf",
      "outputs": [
        {
          "internalType": "uint256",
          "name": "",
          "type": "uint256"
        }
      ],
      "stateMutability": "view",
      "type": "function",
      "constant": true
    },
    {
      "inputs": [
        {
          "internalType": "uint256",
          "name": "tokenId",
          "type": "uint256"
        }
      ],
      "name": "getApproved",
      "outputs": [
        {
          "internalType": "address",
          "name": "",
          "type": "address"
        }
      ],
      "stateMutability": "view",
      "type": "function",
      "constant": true
    },
    {
      "inputs": [
        {
          "internalType": "address",
          "name": "owner",
          "type": "address"
        },
        {
          "internalType": "address",
          "name": "operator",
          "type": "address"
        }
      ],
      "name": "isApprovedForAll",
      "outputs": [
        {
          "internalType": "bool",
          "name": "",
          "type": "bool"
        }
      ],
      "stateMutability": "view",
      "type": "function",
      "constant": true
    },
    {
      "inputs": [],
      "name": "listingPrice",
      "outputs": [
        {
          "internalType": "uint256",
          "name": "",
          "type": "uint256"
        }
      ],
      "stateMutability": "view",
      "type": "function",
      "constant": true
    },
    {
      "inputs": [],
      "name": "name",
      "outputs": [
        {
          "internalType": "string",
          "name": "",
          "type": "string"
        }
      ],
      "stateMutability": "view",
      "type": "function",
      "constant": true
    },
    {
      "inputs": [
        {
          "internalType": "uint256",
          "name": "tokenId",
          "type": "uint256"
        }
      ],
      "name": "ownerOf",
      "outputs": [
        {
          "internalType": "address",
          "name": "",
          "type": "address"
        }
      ],
      "stateMutability": "view",
      "type": "function",
      "constant": true
    },
    {
      "inputs": [
        {
          "internalType": "address",
          "name": "from",
          "type": "address"
        },
        {
          "internalType": "address",
          "name": "to",
          "type": "address"
        },
        {
          "internalType": "uint256",
          "name": "tokenId",
          "type": "uint256"
        }
      ],
      "name": "safeTransferFrom",
      "outputs": [],
      "stateMutability": "nonpayable",
      "type": "function"
    },
    {
      "inputs": [
        {
          "internalType": "address",
          "name": "from",
          "type": "address"
        },
        {
          "internalType": "address",
          "name": "to",
          "type": "address"
        },
        {
          "internalType": "uint256",
          "name": "tokenId",
          "type": "uint256"
        },
        {
          "internalType": "bytes",
          "name": "_data",
          "type": "bytes"
        }
      ],
      "name": "safeTransferFrom",
      "outputs": [],
      "stateMutability": "nonpayable",
      "type": "function"
    },
    {
      "inputs": [
        {
          "internalType": "address",
          "name": "operator",
          "type": "address"
        },
        {
          "internalType": "bool",
          "name": "approved",
          "type": "bool"
        }
      ],
      "name": "setApprovalForAll",
      "outputs": [],
      "stateMutability": "nonpayable",
      "type": "function"
    },
    {
      "inputs": [
        {
          "internalType": "bytes4",
          "name": "interfaceId",
          "type": "bytes4"
        }
      ],
      "name": "supportsInterface",
      "outputs": [
        {
          "internalType": "bool",
          "name": "",
          "type": "bool"
        }
      ],
      "stateMutability": "view",
      "type": "function",
      "constant": true
    },
    {
      "inputs": [],
      "name": "symbol",
      "outputs": [
        {
          "internalType": "string",
          "name": "",
          "type": "string"
        }
      ],
      "stateMutability": "view",
      "type": "function",
      "constant": true
    },
    {
      "inputs": [
        {
          "internalType": "uint256",
          "name": "tokenId",
          "type": "uint256"
        }
      ],
      "name": "tokenURI",
      "outputs": [
        {
          "internalType": "string",
          "name": "",
          "type": "string"
        }
      ],
      "stateMutability": "view",
      "type": "function",
      "constant": true
    },
    {
      "inputs": [
        {
          "internalType": "address",
          "name": "from",
          "type": "address"
        },
        {
          "internalType": "address",
          "name": "to",
          "type": "address"
        },
        {
          "internalType": "uint256",
          "name": "tokenId",
          "type": "uint256"
        }
      ],
      "name": "transferFrom",
      "outputs": [],
      "stateMutability": "nonpayable",
      "type": "function"
    },
    {
      "inputs": [],
      "name": "getLitingPrice",
      "outputs": [
        {
          "internalType": "uint256",
          "name": "",
          "type": "uint256"
        }
      ],
      "stateMutability": "view",
      "type": "function",
      "constant": true
    },
    {
      "inputs": [
        {
          "internalType": "string",
          "name": "tokenURI",
          "type": "string"
        }
      ],
      "name": "createToken",
      "outputs": [
        {
          "internalType": "uint256",
          "name": "",
          "type": "uint256"
        }
      ],
      "stateMutability": "nonpayable",
      "type": "function"
    }
  ],
  "bytecode": "0x60806040526658d15e176280006009553480156200001c57600080fd5b50604051620018b1380380620018b18339810160408190526200003f9162000176565b604080518082018252600d81526c21b430b1ba32b9102a37b5b2b760991b60208083019182528351808501909452600484526321a420a960e11b9084015281519192916200009091600091620000d0565b508051620000a6906001906020840190620000d0565b5050600880546001600160a01b0319166001600160a01b03939093169290921790915550620001e4565b828054620000de90620001a8565b90600052602060002090601f0160209004810192826200010257600085556200014d565b82601f106200011d57805160ff19168380011785556200014d565b828001600101855582156200014d579182015b828111156200014d57825182559160200191906001019062000130565b506200015b9291506200015f565b5090565b5b808211156200015b576000815560010162000160565b6000602082840312156200018957600080fd5b81516001600160a01b0381168114620001a157600080fd5b9392505050565b600181811c90821680620001bd57607f821691505b602082108103620001de57634e487b7160e01b600052602260045260246000fd5b50919050565b6116bd80620001f46000396000f3fe608060405234801561001057600080fd5b50600436106100eb5760003560e01c806370a082311161009257806370a08231146101c757806395d89b41146101da578063a22cb465146101e2578063aa46a400146101f5578063b88d4fde146101ff578063c78f19f914610212578063c87b56dd1461021b578063e7593eb81461022e578063e985e9c51461023657600080fd5b806301ffc9a7146100f057806306fdde0314610118578063081812fc1461012d578063095ea7b31461015857806323b872dd1461016d57806342842e0e1461018057806345576f94146101935780636352211e146101b4575b600080fd5b6101036100fe366004611171565b610249565b60405190151581526020015b60405180910390f35b61012061029b565b60405161010f91906111e6565b61014061013b3660046111f9565b61032d565b6040516001600160a01b03909116815260200161010f565b61016b61016636600461122e565b6103ba565b005b61016b61017b366004611258565b6104ca565b61016b61018e366004611258565b6104fb565b6101a66101a1366004611320565b610516565b60405190815260200161010f565b6101406101c23660046111f9565b61055e565b6101a66101d5366004611369565b6105d5565b61012061065c565b61016b6101f0366004611384565b61066b565b6007546101a69081565b61016b61020d3660046113c0565b61072b565b6101a660095481565b6101206102293660046111f9565b610763565b6009546101a6565b61010361024436600461143c565b6108d9565b60006001600160e01b031982166380ac58cd60e01b148061027a57506001600160e01b03198216635b5e139f60e01b145b8061029557506301ffc9a760e01b6001600160e01b03198316145b92915050565b6060600080546102aa9061146f565b80601f01602080910402602001604051908101604052809291908181526020018280546102d69061146f565b80156103235780601f106102f857610100808354040283529160200191610323565b820191906000526020600020905b81548152906001019060200180831161030657829003601f168201915b5050505050905090565b600061033882610907565b61039e5760405162461bcd60e51b815260206004820152602c60248201527f4552433732313a20617070726f76656420717565727920666f72206e6f6e657860448201526b34b9ba32b73a103a37b5b2b760a11b60648201526084015b60405180910390fd5b506000908152600460205260409020546001600160a01b031690565b60006103c58261055e565b9050806001600160a01b0316836001600160a01b0316036104325760405162461bcd60e51b815260206004820152602160248201527f4552433732313a20617070726f76616c20746f2063757272656e74206f776e656044820152603960f91b6064820152608401610395565b336001600160a01b038216148061044e575061044e81336108d9565b6104bb5760405162461bcd60e51b815260206004820152603860248201527f4552433732313a20617070726f76652063616c6c6572206973206e6f74206f776044820152771b995c881b9bdc88185c1c1c9bdd995908199bdc88185b1b60421b6064820152608401610395565b6104c58383610924565b505050565b6104d43382610992565b6104f05760405162461bcd60e51b8152600401610395906114a9565b6104c5838383610a54565b6104c58383836040518060200160405280600081525061072b565b6000610526600780546001019055565b600061053160075490565b905061053d3382610bf4565b6105478184610d27565b600854610295906001600160a01b0316600161066b565b6000818152600260205260408120546001600160a01b0316806102955760405162461bcd60e51b815260206004820152602960248201527f4552433732313a206f776e657220717565727920666f72206e6f6e657869737460448201526832b73a103a37b5b2b760b91b6064820152608401610395565b60006001600160a01b0382166106405760405162461bcd60e51b815260206004820152602a60248201527f4552433732313a2062616c616e636520717565727920666f7220746865207a65604482015269726f206164647265737360b01b6064820152608401610395565b506001600160a01b031660009081526003602052604090205490565b6060600180546102aa9061146f565b336001600160a01b038316036106bf5760405162461bcd60e51b815260206004820152601960248201527822a9219b99189d1030b8383937bb32903a379031b0b63632b960391b6044820152606401610395565b3360008181526005602090815260408083206001600160a01b03871680855290835292819020805460ff191686151590811790915590519081529192917f17307eab39ab6107e8899845ad3d59bd9653f200f220920489ca2b5937696c31910160405180910390a35050565b6107353383610992565b6107515760405162461bcd60e51b8152600401610395906114a9565b61075d84848484610db2565b50505050565b606061076e82610907565b6107d45760405162461bcd60e51b815260206004820152603160248201527f45524337323155524953746f726167653a2055524920717565727920666f72206044820152703737b732bc34b9ba32b73a103a37b5b2b760791b6064820152608401610395565b600082815260066020526040812080546107ed9061146f565b80601f01602080910402602001604051908101604052809291908181526020018280546108199061146f565b80156108665780601f1061083b57610100808354040283529160200191610866565b820191906000526020600020905b81548152906001019060200180831161084957829003601f168201915b50505050509050600061088460408051602081019091526000815290565b90508051600003610896575092915050565b8151156108c85780826040516020016108b09291906114fa565b60405160208183030381529060405292505050919050565b6108d184610de5565b949350505050565b6001600160a01b03918216600090815260056020908152604080832093909416825291909152205460ff1690565b6000908152600260205260409020546001600160a01b0316151590565b600081815260046020526040902080546001600160a01b0319166001600160a01b03841690811790915581906109598261055e565b6001600160a01b03167f8c5be1e5ebec7d5bd14f71427d1e84f3dd0314c0f7b2291e5b200ac8c7c3b92560405160405180910390a45050565b600061099d82610907565b6109fe5760405162461bcd60e51b815260206004820152602c60248201527f4552433732313a206f70657261746f7220717565727920666f72206e6f6e657860448201526b34b9ba32b73a103a37b5b2b760a11b6064820152608401610395565b6000610a098361055e565b9050806001600160a01b0316846001600160a01b03161480610a445750836001600160a01b0316610a398461032d565b6001600160a01b0316145b806108d157506108d181856108d9565b826001600160a01b0316610a678261055e565b6001600160a01b031614610acf5760405162461bcd60e51b815260206004820152602960248201527f4552433732313a207472616e73666572206f6620746f6b656e2074686174206960448201526839903737ba1037bbb760b91b6064820152608401610395565b6001600160a01b038216610b315760405162461bcd60e51b8152602060048201526024808201527f4552433732313a207472616e7366657220746f20746865207a65726f206164646044820152637265737360e01b6064820152608401610395565b610b3c600082610924565b6001600160a01b0383166000908152600360205260408120805460019290610b6590849061153f565b90915550506001600160a01b0382166000908152600360205260408120805460019290610b93908490611556565b909155505060008181526002602052604080822080546001600160a01b0319166001600160a01b0386811691821790925591518493918716917fddf252ad1be2c89b69c2b068fc378daa952ba7f163c4a11628f55a4df523b3ef91a4505050565b6001600160a01b038216610c4a5760405162461bcd60e51b815260206004820181905260248201527f4552433732313a206d696e7420746f20746865207a65726f20616464726573736044820152606401610395565b610c5381610907565b15610ca05760405162461bcd60e51b815260206004820152601c60248201527f4552433732313a20746f6b656e20616c7265616479206d696e746564000000006044820152606401610395565b6001600160a01b0382166000908152600360205260408120805460019290610cc9908490611556565b909155505060008181526002602052604080822080546001600160a01b0319166001600160a01b03861690811790915590518392907fddf252ad1be2c89b69c2b068fc378daa952ba7f163c4a11628f55a4df523b3ef908290a45050565b610d3082610907565b610d935760405162461bcd60e51b815260206004820152602e60248201527f45524337323155524953746f726167653a2055524920736574206f66206e6f6e60448201526d32bc34b9ba32b73a103a37b5b2b760911b6064820152608401610395565b600082815260066020908152604090912082516104c5928401906110bf565b610dbd848484610a54565b610dc984848484610ebd565b61075d5760405162461bcd60e51b81526004016103959061156e565b6060610df082610907565b610e545760405162461bcd60e51b815260206004820152602f60248201527f4552433732314d657461646174613a2055524920717565727920666f72206e6f60448201526e3732bc34b9ba32b73a103a37b5b2b760891b6064820152608401610395565b6000610e6b60408051602081019091526000815290565b90506000815111610e8b5760405180602001604052806000815250610eb6565b80610e9584610fbe565b604051602001610ea69291906114fa565b6040516020818303038152906040525b9392505050565b60006001600160a01b0384163b15610fb357604051630a85bd0160e11b81526001600160a01b0385169063150b7a0290610f019033908990889088906004016115c0565b6020604051808303816000875af1925050508015610f3c575060408051601f3d908101601f19168201909252610f39918101906115fd565b60015b610f99573d808015610f6a576040519150601f19603f3d011682016040523d82523d6000602084013e610f6f565b606091505b508051600003610f915760405162461bcd60e51b81526004016103959061156e565b805181602001fd5b6001600160e01b031916630a85bd0160e11b1490506108d1565b506001949350505050565b606081600003610fe55750506040805180820190915260018152600360fc1b602082015290565b8160005b811561100f5780610ff98161161a565b91506110089050600a83611649565b9150610fe9565b60008167ffffffffffffffff81111561102a5761102a611294565b6040519080825280601f01601f191660200182016040528015611054576020820181803683370190505b5090505b84156108d15761106960018361153f565b9150611076600a8661165d565b611081906030611556565b60f81b81838151811061109657611096611671565b60200101906001600160f81b031916908160001a9053506110b8600a86611649565b9450611058565b8280546110cb9061146f565b90600052602060002090601f0160209004810192826110ed5760008555611133565b82601f1061110657805160ff1916838001178555611133565b82800160010185558215611133579182015b82811115611133578251825591602001919060010190611118565b5061113f929150611143565b5090565b5b8082111561113f5760008155600101611144565b6001600160e01b03198116811461116e57600080fd5b50565b60006020828403121561118357600080fd5b8135610eb681611158565b60005b838110156111a9578181015183820152602001611191565b8381111561075d5750506000910152565b600081518084526111d281602086016020860161118e565b601f01601f19169290920160200192915050565b602081526000610eb660208301846111ba565b60006020828403121561120b57600080fd5b5035919050565b80356001600160a01b038116811461122957600080fd5b919050565b6000806040838503121561124157600080fd5b61124a83611212565b946020939093013593505050565b60008060006060848603121561126d57600080fd5b61127684611212565b925061128460208501611212565b9150604084013590509250925092565b634e487b7160e01b600052604160045260246000fd5b600067ffffffffffffffff808411156112c5576112c5611294565b604051601f8501601f19908116603f011681019082821181831017156112ed576112ed611294565b8160405280935085815286868601111561130657600080fd5b858560208301376000602087830101525050509392505050565b60006020828403121561133257600080fd5b813567ffffffffffffffff81111561134957600080fd5b8201601f8101841361135a57600080fd5b6108d1848235602084016112aa565b60006020828403121561137b57600080fd5b610eb682611212565b6000806040838503121561139757600080fd5b6113a083611212565b9150602083013580151581146113b557600080fd5b809150509250929050565b600080600080608085870312156113d657600080fd5b6113df85611212565b93506113ed60208601611212565b925060408501359150606085013567ffffffffffffffff81111561141057600080fd5b8501601f8101871361142157600080fd5b611430878235602084016112aa565b91505092959194509250565b6000806040838503121561144f57600080fd5b61145883611212565b915061146660208401611212565b90509250929050565b600181811c9082168061148357607f821691505b6020821081036114a357634e487b7160e01b600052602260045260246000fd5b50919050565b60208082526031908201527f4552433732313a207472616e736665722063616c6c6572206973206e6f74206f6040820152701ddb995c881b9bdc88185c1c1c9bdd9959607a1b606082015260800190565b6000835161150c81846020880161118e565b83519083019061152081836020880161118e565b01949350505050565b634e487b7160e01b600052601160045260246000fd5b60008282101561155157611551611529565b500390565b6000821982111561156957611569611529565b500190565b60208082526032908201527f4552433732313a207472616e7366657220746f206e6f6e20455243373231526560408201527131b2b4bb32b91034b6b83632b6b2b73a32b960711b606082015260800190565b6001600160a01b03858116825284166020820152604081018390526080606082018190526000906115f3908301846111ba565b9695505050505050565b60006020828403121561160f57600080fd5b8151610eb681611158565b60006001820161162c5761162c611529565b5060010190565b634e487b7160e01b600052601260045260246000fd5b60008261165857611658611633565b500490565b60008261166c5761166c611633565b500690565b634e487b7160e01b600052603260045260246000fdfea26469706673582212209ab75b740616b302afbbfed8a2e47ad26975008b6a3f4206c27a6f56852f4f6264736f6c634300080d0033",
  "immutableReferences": {},
  "source": "pragma solidity ^0.8.3;\r\n\r\nimport \"@openzeppelin/contracts/utils/Counters.sol\";\r\nimport \"@openzeppelin/contracts/token/ERC721/extensions/ERC721URIStorage.sol\";\r\nimport \"@openzeppelin/contracts/token/ERC721/ERC721.sol\";\r\n\r\ncontract NFT is ERC721URIStorage {\r\n  using Counters for Counters.Counter;\r\n  Counters.Counter public _tokenIds;\r\n  address contractAddress;\r\n  uint256 public listingPrice = 0.025 ether;\r\n\r\n  constructor(address marketplaceAddress) ERC721(\"Chacter Token\", \"CHAR\") {\r\n      contractAddress = marketplaceAddress;\r\n  }\r\n  function getLitingPrice() public view returns (uint256) {\r\n    return listingPrice;\r\n  }\r\n\r\n  function createToken(string memory tokenURI) public returns (uint) {\r\n      _tokenIds.increment();\r\n      uint256 newItemId = _tokenIds.current();\r\n\r\n      _mint(msg.sender, newItemId);\r\n      _setTokenURI(newItemId, tokenURI);\r\n      setApprovalForAll(contractAddress, true);\r\n      return newItemId;\r\n  }\r\n}\r\n",
  "sourcePath": "C:/Users/Sonika Agarwal/desktop/hackathon/fiat-nft/deedfi/contracts/NFT.sol",
  "compiler": {
    "name": "solc",
    "version": "0.8.13+commit.abaa5c0e.Emscripten.clang"
  },
  "schemaVersion": "3.4.1",
  "updatedAt": "2022-03-27T06:33:08.228Z",
  "networkType": "ethereum",
  "devdoc": {
    "kind": "dev",
    "methods": {
      "approve(address,uint256)": {
        "details": "See {IERC721-approve}."
      },
      "balanceOf(address)": {
        "details": "See {IERC721-balanceOf}."
      },
      "getApproved(uint256)": {
        "details": "See {IERC721-getApproved}."
      },
      "isApprovedForAll(address,address)": {
        "details": "See {IERC721-isApprovedForAll}."
      },
      "name()": {
        "details": "See {IERC721Metadata-name}."
      },
      "ownerOf(uint256)": {
        "details": "See {IERC721-ownerOf}."
      },
      "safeTransferFrom(address,address,uint256)": {
        "details": "See {IERC721-safeTransferFrom}."
      },
      "safeTransferFrom(address,address,uint256,bytes)": {
        "details": "See {IERC721-safeTransferFrom}."
      },
      "setApprovalForAll(address,bool)": {
        "details": "See {IERC721-setApprovalForAll}."
      },
      "supportsInterface(bytes4)": {
        "details": "See {IERC165-supportsInterface}."
      },
      "symbol()": {
        "details": "See {IERC721Metadata-symbol}."
      },
      "tokenURI(uint256)": {
        "details": "See {IERC721Metadata-tokenURI}."
      },
      "transferFrom(address,address,uint256)": {
        "details": "See {IERC721-transferFrom}."
      }
    },
    "version": 1
  },
  "userdoc": {
    "kind": "user",
    "methods": {},
    "version": 1
  }
}