{
  "contractName": "StripeMarket",
  "abi": [
    {
      "inputs": [],
      "stateMutability": "nonpayable",
      "type": "constructor"
    },
    {
      "anonymous": false,
      "inputs": [
        {
          "indexed": true,
          "internalType": "uint256",
          "name": "itemId",
          "type": "uint256"
        },
        {
          "indexed": true,
          "internalType": "address",
          "name": "nftContract",
          "type": "address"
        },
        {
          "indexed": true,
          "internalType": "uint256",
          "name": "tokenId",
          "type": "uint256"
        },
        {
          "indexed": false,
          "internalType": "string",
          "name": "name",
          "type": "string"
        },
        {
          "indexed": false,
          "internalType": "string",
          "name": "tokenUri",
          "type": "string"
        },
        {
          "indexed": false,
          "internalType": "address",
          "name": "seller",
          "type": "address"
        },
        {
          "indexed": false,
          "internalType": "address",
          "name": "owner",
          "type": "address"
        },
        {
          "indexed": false,
          "internalType": "uint256",
          "name": "price",
          "type": "uint256"
        },
        {
          "indexed": false,
          "internalType": "bool",
          "name": "sold",
          "type": "bool"
        },
        {
          "indexed": false,
          "internalType": "bool",
          "name": "paid",
          "type": "bool"
        }
      ],
      "name": "MarketItemCreated",
      "type": "event"
    },
    {
      "inputs": [
        {
          "internalType": "uint256",
          "name": "",
          "type": "uint256"
        }
      ],
      "name": "idToMarketItem",
      "outputs": [
        {
          "internalType": "uint256",
          "name": "itemId",
          "type": "uint256"
        },
        {
          "internalType": "address",
          "name": "nftContract",
          "type": "address"
        },
        {
          "internalType": "uint256",
          "name": "tokenId",
          "type": "uint256"
        },
        {
          "internalType": "string",
          "name": "name",
          "type": "string"
        },
        {
          "internalType": "string",
          "name": "tokenUri",
          "type": "string"
        },
        {
          "internalType": "address payable",
          "name": "seller",
          "type": "address"
        },
        {
          "internalType": "address payable",
          "name": "owner",
          "type": "address"
        },
        {
          "internalType": "uint256",
          "name": "price",
          "type": "uint256"
        },
        {
          "internalType": "bool",
          "name": "sold",
          "type": "bool"
        },
        {
          "internalType": "bool",
          "name": "paid",
          "type": "bool"
        }
      ],
      "stateMutability": "view",
      "type": "function",
      "constant": true
    },
    {
      "inputs": [],
      "name": "listingPrice",
      "outputs": [
        {
          "internalType": "uint256",
          "name": "",
          "type": "uint256"
        }
      ],
      "stateMutability": "view",
      "type": "function",
      "constant": true
    },
    {
      "stateMutability": "payable",
      "type": "receive",
      "payable": true
    },
    {
      "inputs": [],
      "name": "getListingPrice",
      "outputs": [
        {
          "internalType": "uint256",
          "name": "",
          "type": "uint256"
        }
      ],
      "stateMutability": "view",
      "type": "function",
      "constant": true
    },
    {
      "inputs": [],
      "name": "getItemId",
      "outputs": [
        {
          "internalType": "uint256",
          "name": "",
          "type": "uint256"
        }
      ],
      "stateMutability": "view",
      "type": "function",
      "constant": true
    },
    {
      "inputs": [
        {
          "internalType": "uint256",
          "name": "itemId",
          "type": "uint256"
        }
      ],
      "name": "setPaid",
      "outputs": [],
      "stateMutability": "nonpayable",
      "type": "function"
    },
    {
      "inputs": [
        {
          "internalType": "address",
          "name": "nftContract",
          "type": "address"
        },
        {
          "internalType": "uint256",
          "name": "tokenId",
          "type": "uint256"
        },
        {
          "internalType": "uint256",
          "name": "price",
          "type": "uint256"
        },
        {
          "internalType": "string",
          "name": "name",
          "type": "string"
        }
      ],
      "name": "createItem",
      "outputs": [],
      "stateMutability": "payable",
      "type": "function",
      "payable": true
    },
    {
      "inputs": [
        {
          "internalType": "address",
          "name": "nftContract",
          "type": "address"
        },
        {
          "internalType": "address",
          "name": "buyer",
          "type": "address"
        },
        {
          "internalType": "uint256",
          "name": "itemId",
          "type": "uint256"
        }
      ],
      "name": "createMarketSale",
      "outputs": [],
      "stateMutability": "payable",
      "type": "function",
      "payable": true
    },
    {
      "inputs": [],
      "name": "getItems",
      "outputs": [
        {
          "components": [
            {
              "internalType": "uint256",
              "name": "itemId",
              "type": "uint256"
            },
            {
              "internalType": "address",
              "name": "nftContract",
              "type": "address"
            },
            {
              "internalType": "uint256",
              "name": "tokenId",
              "type": "uint256"
            },
            {
              "internalType": "string",
              "name": "name",
              "type": "string"
            },
            {
              "internalType": "string",
              "name": "tokenUri",
              "type": "string"
            },
            {
              "internalType": "address payable",
              "name": "seller",
              "type": "address"
            },
            {
              "internalType": "address payable",
              "name": "owner",
              "type": "address"
            },
            {
              "internalType": "uint256",
              "name": "price",
              "type": "uint256"
            },
            {
              "internalType": "bool",
              "name": "sold",
              "type": "bool"
            },
            {
              "internalType": "bool",
              "name": "paid",
              "type": "bool"
            }
          ],
          "internalType": "struct StripeMarket.MarketItem[]",
          "name": "",
          "type": "tuple[]"
        }
      ],
      "stateMutability": "view",
      "type": "function",
      "constant": true
    },
    {
      "inputs": [],
      "name": "fetchMarketItems",
      "outputs": [
        {
          "components": [
            {
              "internalType": "uint256",
              "name": "itemId",
              "type": "uint256"
            },
            {
              "internalType": "address",
              "name": "nftContract",
              "type": "address"
            },
            {
              "internalType": "uint256",
              "name": "tokenId",
              "type": "uint256"
            },
            {
              "internalType": "string",
              "name": "name",
              "type": "string"
            },
            {
              "internalType": "string",
              "name": "tokenUri",
              "type": "string"
            },
            {
              "internalType": "address payable",
              "name": "seller",
              "type": "address"
            },
            {
              "internalType": "address payable",
              "name": "owner",
              "type": "address"
            },
            {
              "internalType": "uint256",
              "name": "price",
              "type": "uint256"
            },
            {
              "internalType": "bool",
              "name": "sold",
              "type": "bool"
            },
            {
              "internalType": "bool",
              "name": "paid",
              "type": "bool"
            }
          ],
          "internalType": "struct StripeMarket.MarketItem[]",
          "name": "",
          "type": "tuple[]"
        }
      ],
      "stateMutability": "view",
      "type": "function",
      "constant": true
    },
    {
      "inputs": [],
      "name": "fetchMyNFTs",
      "outputs": [
        {
          "components": [
            {
              "internalType": "uint256",
              "name": "itemId",
              "type": "uint256"
            },
            {
              "internalType": "address",
              "name": "nftContract",
              "type": "address"
            },
            {
              "internalType": "uint256",
              "name": "tokenId",
              "type": "uint256"
            },
            {
              "internalType": "string",
              "name": "name",
              "type": "string"
            },
            {
              "internalType": "string",
              "name": "tokenUri",
              "type": "string"
            },
            {
              "internalType": "address payable",
              "name": "seller",
              "type": "address"
            },
            {
              "internalType": "address payable",
              "name": "owner",
              "type": "address"
            },
            {
              "internalType": "uint256",
              "name": "price",
              "type": "uint256"
            },
            {
              "internalType": "bool",
              "name": "sold",
              "type": "bool"
            },
            {
              "internalType": "bool",
              "name": "paid",
              "type": "bool"
            }
          ],
          "internalType": "struct StripeMarket.MarketItem[]",
          "name": "",
          "type": "tuple[]"
        }
      ],
      "stateMutability": "view",
      "type": "function",
      "constant": true
    },
    {
      "inputs": [],
      "name": "fetchItemsCreated",
      "outputs": [
        {
          "components": [
            {
              "internalType": "uint256",
              "name": "itemId",
              "type": "uint256"
            },
            {
              "internalType": "address",
              "name": "nftContract",
              "type": "address"
            },
            {
              "internalType": "uint256",
              "name": "tokenId",
              "type": "uint256"
            },
            {
              "internalType": "string",
              "name": "name",
              "type": "string"
            },
            {
              "internalType": "string",
              "name": "tokenUri",
              "type": "string"
            },
            {
              "internalType": "address payable",
              "name": "seller",
              "type": "address"
            },
            {
              "internalType": "address payable",
              "name": "owner",
              "type": "address"
            },
            {
              "internalType": "uint256",
              "name": "price",
              "type": "uint256"
            },
            {
              "internalType": "bool",
              "name": "sold",
              "type": "bool"
            },
            {
              "internalType": "bool",
              "name": "paid",
              "type": "bool"
            }
          ],
          "internalType": "struct StripeMarket.MarketItem[]",
          "name": "",
          "type": "tuple[]"
        }
      ],
      "stateMutability": "view",
      "type": "function",
      "constant": true
    }
  ],
  "bytecode": "0x6080604052600260045534801561001557600080fd5b506001600055600380546001600160a01b031916331790556119738061003c6000396000f3fe6080604052600436106100a05760003560e01c80636d25e48e116100645780636d25e48e14610135578063a211836514610172578063c78f19f914610185578063db84f8a91461019b578063e61a70c0146101ae578063f064c32e146101e457600080fd5b80630f08efe0146100ac57806312e85585146100d7578063202e3740146100f6578063410d59cc1461010b578063445f76d71461012057600080fd5b366100a757005b600080fd5b3480156100b857600080fd5b506100c16101f9565b6040516100ce919061145d565b60405180910390f35b3480156100e357600080fd5b506004545b6040519081526020016100ce565b34801561010257600080fd5b506100c16104c9565b34801561011757600080fd5b506100c16107d6565b34801561012c57600080fd5b506100e8610a49565b34801561014157600080fd5b50610170610150366004611562565b6000908152600560205260409020600801805461ff001916610100179055565b005b610170610180366004611597565b610a5b565b34801561019157600080fd5b506100e860045481565b6101706101a9366004611640565b610b97565b3480156101ba57600080fd5b506101ce6101c9366004611562565b610e8a565b6040516100ce9a999897969594939291906116e3565b3480156101f057600080fd5b506100c1611008565b6060600061020660015490565b9050600061021360025490565b6001546102209190611776565b9050600080826001600160401b0381111561023d5761023d6115d3565b60405190808252806020026020018201604052801561027657816020015b610263611315565b81526020019060019003908161025b5790505b50905060005b848110156104c057600060058161029484600161178d565b81526020810191909152604001600020600601546001600160a01b0316036104ae5760006102c382600161178d565b6000818152600560209081526040918290208251610140810184528154815260018201546001600160a01b031692810192909252600281015492820192909252600382018054939450919290918391606084019190610321906117a5565b80601f016020809104026020016040519081016040528092919081815260200182805461034d906117a5565b801561039a5780601f1061036f5761010080835404028352916020019161039a565b820191906000526020600020905b81548152906001019060200180831161037d57829003601f168201915b505050505081526020016004820180546103b3906117a5565b80601f01602080910402602001604051908101604052809291908181526020018280546103df906117a5565b801561042c5780601f106104015761010080835404028352916020019161042c565b820191906000526020600020905b81548152906001019060200180831161040f57829003601f168201915b505050918352505060058201546001600160a01b03908116602083015260068301541660408201526007820154606082015260089091015460ff8082161515608084015261010090910416151560a0909101528451859087908110610493576104936117df565b60209081029190910101526104a960018661178d565b945050505b806104b8816117f5565b91505061027c565b50949350505050565b606060006104d660015490565b905060008060005b838110156105385733600560006104f684600161178d565b81526020810191909152604001600020600601546001600160a01b0316036105265761052360018461178d565b92505b80610530816117f5565b9150506104de565b506000826001600160401b03811115610553576105536115d3565b60405190808252806020026020018201604052801561058c57816020015b610579611315565b8152602001906001900390816105715790505b50905060005b848110156104c05733600560006105aa84600161178d565b81526020810191909152604001600020600601546001600160a01b0316036107c45760006105d982600161178d565b6000818152600560209081526040918290208251610140810184528154815260018201546001600160a01b031692810192909252600281015492820192909252600382018054939450919290918391606084019190610637906117a5565b80601f0160208091040260200160405190810160405280929190818152602001828054610663906117a5565b80156106b05780601f10610685576101008083540402835291602001916106b0565b820191906000526020600020905b81548152906001019060200180831161069357829003601f168201915b505050505081526020016004820180546106c9906117a5565b80601f01602080910402602001604051908101604052809291908181526020018280546106f5906117a5565b80156107425780601f1061071757610100808354040283529160200191610742565b820191906000526020600020905b81548152906001019060200180831161072557829003601f168201915b505050918352505060058201546001600160a01b03908116602083015260068301541660408201526007820154606082015260089091015460ff8082161515608084015261010090910416151560a09091015284518590879081106107a9576107a96117df565b60209081029190910101526107bf60018661178d565b945050505b806107ce816117f5565b915050610592565b606060006107e360015490565b90506000816001600160401b038111156107ff576107ff6115d3565b60405190808252806020026020018201604052801561083857816020015b610825611315565b81526020019060019003908161081d5790505b50905060005b82811015610a4257600060058161085684600161178d565b815260208082019290925260409081016000208151610140810183528154815260018201546001600160a01b0316938101939093526002810154918301919091526003810180546060840191906108ac906117a5565b80601f01602080910402602001604051908101604052809291908181526020018280546108d8906117a5565b80156109255780601f106108fa57610100808354040283529160200191610925565b820191906000526020600020905b81548152906001019060200180831161090857829003601f168201915b5050505050815260200160048201805461093e906117a5565b80601f016020809104026020016040519081016040528092919081815260200182805461096a906117a5565b80156109b75780601f1061098c576101008083540402835291602001916109b7565b820191906000526020600020905b81548152906001019060200180831161099a57829003601f168201915b505050918352505060058201546001600160a01b03908116602083015260068301541660408201526007820154606082015260089091015460ff8082161515608084015261010090910416151560a09091015283519091508190849084908110610a2357610a236117df565b6020026020010181905250508080610a3a906117f5565b91505061083e565b5092915050565b600080610a5560015490565b92915050565b600260005403610a865760405162461bcd60e51b8152600401610a7d9061180e565b60405180910390fd5b60026000818155828152600560208190526040808320600781015494810154920154905191926001600160a01b039091169184156108fc0291859190818181858888f19350505050158015610adf573d6000803e3d6000fd5b506040516323b872dd60e01b81526001600160a01b038616906323b872dd90610b1090309088908690600401611845565b600060405180830381600087803b158015610b2a57600080fd5b505af1158015610b3e573d6000803e3d6000fd5b50505060008481526005602052604090206006810180546001600160a01b0388166001600160a01b0319909116179055600801805460ff1916600117905550610b8b600280546001019055565b50506001600055505050565b600260005403610bb95760405162461bcd60e51b8152600401610a7d9061180e565b60026000556001821015610c0a5760405162461bcd60e51b81526020600482015260186024820152776174206c65617374206d6f7265207468616e20312077656960401b6044820152606401610a7d565b60405163c87b56dd60e01b8152600481018490526000906001600160a01b0386169063c87b56dd90602401600060405180830381865afa158015610c52573d6000803e3d6000fd5b505050506040513d6000823e601f3d908101601f19168201604052610c7a9190810190611869565b9050610c8a600180546001019055565b6000610c9560015490565b60408051610140810182528281526001600160a01b0389811660208084019182528385018b8152606085018a8152608086018a90523360a0870152600060c0870181905260e087018d90526101008701819052610120870181905288815260058452969096208551815592516001840180546001600160a01b031916919095161790935591516002820155925180519495509193849392610d3d926003850192910190611368565b5060808201518051610d59916004840191602090910190611368565b5060a08201516005820180546001600160a01b03199081166001600160a01b039384161790915560c084015160068401805490921690831617905560e0830151600783015561010080840151600890930180546101209095015161ffff1990951693151561ff00191693909317931515029290921790556040516323b872dd60e01b8152908816906323b872dd90610df990339030908b90600401611845565b600060405180830381600087803b158015610e1357600080fd5b505af1158015610e27573d6000803e3d6000fd5b5050505085876001600160a01b0316837fc7d1354d53044c1666b90fbdf3716325847929561b5eddbd6b0d76ec7fc4768587873360008c600080604051610e7497969594939291906118df565b60405180910390a4505060016000555050505050565b600560205260009081526040902080546001820154600283015460038401805493946001600160a01b0390931693919291610ec4906117a5565b80601f0160208091040260200160405190810160405280929190818152602001828054610ef0906117a5565b8015610f3d5780601f10610f1257610100808354040283529160200191610f3d565b820191906000526020600020905b815481529060010190602001808311610f2057829003601f168201915b505050505090806004018054610f52906117a5565b80601f0160208091040260200160405190810160405280929190818152602001828054610f7e906117a5565b8015610fcb5780601f10610fa057610100808354040283529160200191610fcb565b820191906000526020600020905b815481529060010190602001808311610fae57829003601f168201915b5050505060058301546006840154600785015460089095015493946001600160a01b03928316949290911692509060ff808216916101009004168a565b6060600061101560015490565b905060008060005b8381101561107757336005600061103584600161178d565b81526020810191909152604001600020600501546001600160a01b0316036110655761106260018461178d565b92505b8061106f816117f5565b91505061101d565b506000826001600160401b03811115611092576110926115d3565b6040519080825280602002602001820160405280156110cb57816020015b6110b8611315565b8152602001906001900390816110b05790505b50905060005b848110156104c05733600560006110e984600161178d565b81526020810191909152604001600020600501546001600160a01b03160361130357600061111882600161178d565b6000818152600560209081526040918290208251610140810184528154815260018201546001600160a01b031692810192909252600281015492820192909252600382018054939450919290918391606084019190611176906117a5565b80601f01602080910402602001604051908101604052809291908181526020018280546111a2906117a5565b80156111ef5780601f106111c4576101008083540402835291602001916111ef565b820191906000526020600020905b8154815290600101906020018083116111d257829003601f168201915b50505050508152602001600482018054611208906117a5565b80601f0160208091040260200160405190810160405280929190818152602001828054611234906117a5565b80156112815780601f1061125657610100808354040283529160200191611281565b820191906000526020600020905b81548152906001019060200180831161126457829003601f168201915b505050918352505060058201546001600160a01b03908116602083015260068301541660408201526007820154606082015260089091015460ff8082161515608084015261010090910416151560a09091015284518590879081106112e8576112e86117df565b60209081029190910101526112fe60018661178d565b945050505b8061130d816117f5565b9150506110d1565b60408051610140810182526000808252602082018190529181018290526060808201819052608082015260a0810182905260c0810182905260e08101829052610100810182905261012081019190915290565b828054611374906117a5565b90600052602060002090601f01602090048101928261139657600085556113dc565b82601f106113af57805160ff19168380011785556113dc565b828001600101855582156113dc579182015b828111156113dc5782518255916020019190600101906113c1565b506113e89291506113ec565b5090565b5b808211156113e857600081556001016113ed565b60005b8381101561141c578181015183820152602001611404565b8381111561142b576000848401525b50505050565b60008151808452611449816020860160208601611401565b601f01601f19169290920160200192915050565b60006020808301818452808551808352604092508286019150828160051b87010184880160005b8381101561155457888303603f19018552815180518452878101516001600160a01b038116898601526101409050878201518886015260608083015182828801526114d183880182611431565b92505050608080830151868303828801526114ec8382611431565b9250505060a08083015161150a828801826001600160a01b03169052565b505060c0828101516001600160a01b03169086015260e080830151908601526101008083015115159086015261012091820151151591909401529386019390860190600101611484565b509098975050505050505050565b60006020828403121561157457600080fd5b5035919050565b80356001600160a01b038116811461159257600080fd5b919050565b6000806000606084860312156115ac57600080fd5b6115b58461157b565b92506115c36020850161157b565b9150604084013590509250925092565b634e487b7160e01b600052604160045260246000fd5b604051601f8201601f191681016001600160401b0381118282101715611611576116116115d3565b604052919050565b60006001600160401b03821115611632576116326115d3565b50601f01601f191660200190565b6000806000806080858703121561165657600080fd5b61165f8561157b565b9350602085013592506040850135915060608501356001600160401b0381111561168857600080fd5b8501601f8101871361169957600080fd5b80356116ac6116a782611619565b6115e9565b8181528860208385010111156116c157600080fd5b8160208401602083013760006020838301015280935050505092959194509250565b8a81526001600160a01b038a81166020830152604082018a9052610140606083018190526000916117168483018c611431565b9150838203608085015261172a828b611431565b98811660a08501529690961660c08301525060e08101939093529015156101008301521515610120909101525095945050505050565b634e487b7160e01b600052601160045260246000fd5b60008282101561178857611788611760565b500390565b600082198211156117a0576117a0611760565b500190565b600181811c908216806117b957607f821691505b6020821081036117d957634e487b7160e01b600052602260045260246000fd5b50919050565b634e487b7160e01b600052603260045260246000fd5b60006001820161180757611807611760565b5060010190565b6020808252601f908201527f5265656e7472616e637947756172643a207265656e7472616e742063616c6c00604082015260600190565b6001600160a01b039384168152919092166020820152604081019190915260600190565b60006020828403121561187b57600080fd5b81516001600160401b0381111561189157600080fd5b8201601f810184136118a257600080fd5b80516118b06116a782611619565b8181528560208385010111156118c557600080fd5b6118d6826020830160208601611401565b95945050505050565b60e0815260006118f260e083018a611431565b8281036020840152611904818a611431565b6001600160a01b03988916604085015296909716606083015250608081019390935290151560a0830152151560c090910152939250505056fea2646970667358221220e59550e7b9183d2dbf3d8403d45c31f506ebb55269912c20c19a621014025c9164736f6c634300080d0033",
  "immutableReferences": {},
  "source": "pragma solidity ^0.8.3;\r\n\r\nimport \"@openzeppelin/contracts/utils/Counters.sol\";\r\nimport \"@openzeppelin/contracts/security/ReentrancyGuard.sol\";\r\nimport \"@openzeppelin/contracts/token/ERC721/IERC721.sol\";\r\nimport \"@openzeppelin/contracts/token/ERC721/extensions/IERC721Metadata.sol\";\r\n\r\ncontract StripeMarket is ReentrancyGuard{\r\n  using Counters for Counters.Counter;\r\n    Counters.Counter private _itemIds;\r\n    Counters.Counter private _itemsSold;\r\n\r\n    address payable owner;\r\n    uint256 public listingPrice = 2 ;\r\n\r\n  constructor() {\r\n    owner = payable(msg.sender);\r\n  }\r\n  struct MarketItem {\r\n    uint itemId;\r\n    address nftContract;\r\n    uint256 tokenId;\r\n    string name;\r\n    string tokenUri;\r\n    address payable seller;\r\n    address payable owner;\r\n    uint256 price;\r\n    bool sold;\r\n    bool paid;\r\n  }\r\n\r\n  mapping(uint256 => MarketItem) public idToMarketItem;\r\n\r\n  event MarketItemCreated (\r\n    uint indexed itemId,\r\n    address indexed nftContract,\r\n    uint256 indexed tokenId,\r\n    string name,\r\n    string tokenUri,\r\n    address seller,\r\n    address owner,\r\n    uint256 price,\r\n    bool sold,\r\n    bool paid\r\n  );\r\n\r\n  function getListingPrice() public view returns (uint256) {\r\n    return listingPrice;\r\n  }\r\n\r\n  function getItemId() public view returns(uint256) {\r\n    uint256 itemId = _itemIds.current();\r\n    return  itemId;\r\n  }\r\n  receive () external payable {}\r\n\r\n  function setPaid (uint256 itemId) public {\r\n    idToMarketItem[itemId].paid = true;\r\n  }\r\n\r\n  function createItem(\r\n    address nftContract,\r\n    uint256 tokenId,\r\n    uint256 price,\r\n    string memory name\r\n    ) public payable nonReentrant{\r\n    require(price>=1, 'at least more than 1 wei');\r\n    //require(msg.value >= listingPrice, \"listing price not paid\");\r\n    string memory tUri = IERC721Metadata(nftContract).tokenURI(tokenId);\r\n    _itemIds.increment();\r\n    uint256 itemId = _itemIds.current();\r\n    MarketItem memory item =  MarketItem(\r\n      itemId,\r\n      nftContract,\r\n      tokenId,\r\n      name,\r\n      tUri,\r\n      payable(msg.sender),\r\n      payable(address(0)),\r\n      price,\r\n      false,\r\n      false\r\n      );\r\n    idToMarketItem[itemId] = item;\r\n    IERC721(nftContract).transferFrom(msg.sender, address(this),tokenId);\r\n    emit MarketItemCreated(\r\n      itemId,\r\n      nftContract,\r\n      tokenId,\r\n      name,\r\n      tUri,\r\n      msg.sender,\r\n      address(0),\r\n      price,\r\n      false,\r\n      false\r\n      );\r\n  }\r\n\r\n  function createMarketSale(\r\n  address nftContract,\r\n  address buyer,\r\n  uint256 itemId\r\n  ) public payable nonReentrant{\r\n    uint price = idToMarketItem[itemId].price;\r\n    uint tokenId = idToMarketItem[itemId].tokenId;\r\n\r\n    idToMarketItem[itemId].seller.transfer(price);\r\n    IERC721(nftContract).transferFrom(address(this), buyer, tokenId);\r\n    idToMarketItem[itemId].owner = payable(buyer);\r\n    idToMarketItem[itemId].sold = true;\r\n    _itemsSold.increment();\r\n    //payable(owner).transfer(listingPrice);\r\n}\r\n\r\n  function getItems() public view returns (MarketItem[] memory) {\r\n    uint256 itemId = _itemIds.current();\r\n    MarketItem[] memory items = new MarketItem[](itemId);\r\n    for (uint256 i =0; i<itemId; i++){\r\n      MarketItem memory item = idToMarketItem[i+1];\r\n      items[i] = item;\r\n    }\r\n    return items ;\r\n  }\r\n\r\n  function fetchMarketItems() public view returns (MarketItem[] memory) {\r\n    uint itemCount = _itemIds.current();\r\n    uint unsoldItemCount = _itemIds.current() - _itemsSold.current();\r\n    uint currentIndex = 0;\r\n\r\n    MarketItem[] memory items = new MarketItem[](unsoldItemCount);\r\n    for (uint i = 0; i < itemCount; i++) {\r\n      if (idToMarketItem[i + 1].owner == address(0)) {\r\n        uint currentId = i + 1;\r\n        MarketItem storage currentItem = idToMarketItem[currentId];\r\n        items[currentIndex] = currentItem;\r\n        currentIndex += 1;\r\n      }\r\n    }\r\n    return items;\r\n  }\r\n\r\n  function fetchMyNFTs() public view returns (MarketItem[] memory) {\r\n    uint totalItemCount = _itemIds.current();\r\n    uint itemCount = 0;\r\n    uint currentIndex = 0;\r\n\r\n    for (uint i = 0; i < totalItemCount; i++) {\r\n      if (idToMarketItem[i + 1].owner == msg.sender) {\r\n        itemCount += 1;\r\n      }\r\n    }\r\n\r\n    MarketItem[] memory items = new MarketItem[](itemCount);\r\n    for (uint i = 0; i < totalItemCount; i++) {\r\n      if (idToMarketItem[i + 1].owner == msg.sender) {\r\n        uint currentId = i + 1;\r\n        MarketItem storage currentItem = idToMarketItem[currentId];\r\n        items[currentIndex] = currentItem;\r\n        currentIndex += 1;\r\n      }\r\n    }\r\n    return items;\r\n  }\r\n\r\n  function fetchItemsCreated() public view returns (MarketItem[] memory) {\r\n    uint totalItemCount = _itemIds.current();\r\n    uint itemCount = 0;\r\n    uint currentIndex = 0;\r\n\r\n    for (uint i = 0; i < totalItemCount; i++) {\r\n      if (idToMarketItem[i + 1].seller == msg.sender) {\r\n        itemCount += 1;\r\n      }\r\n    }\r\n\r\n    MarketItem[] memory items = new MarketItem[](itemCount);\r\n    for (uint i = 0; i < totalItemCount; i++) {\r\n      if (idToMarketItem[i + 1].seller == msg.sender) {\r\n        uint currentId = i + 1;\r\n        MarketItem storage currentItem = idToMarketItem[currentId];\r\n        items[currentIndex] = currentItem;\r\n        currentIndex += 1;\r\n      }\r\n    }\r\n    return items;\r\n  }\r\n}\r\n",
  "sourcePath": "C:/Users/Sonika Agarwal/desktop/hackathon/fiat-nft/deedfi/contracts/StripeMarket.sol",
  "compiler": {
    "name": "solc",
    "version": "0.8.13+commit.abaa5c0e.Emscripten.clang"
  },
  "schemaVersion": "3.4.1",
  "updatedAt": "2022-03-27T06:33:08.242Z",
  "networkType": "ethereum",
  "devdoc": {
    "kind": "dev",
    "methods": {},
    "version": 1
  },
  "userdoc": {
    "kind": "user",
    "methods": {},
    "version": 1
  }
}